:100000000C9434000C9451000C9451000C94510049
:100010000C9451000C9451000C9451000C9451001C
:100020000C9451000C9451000C9451000C9451000C
:100030000C9451000C9451000C9453000C945100FA
:100040000C9451000C9451000C9451000C945100EC
:100050000C9451000C9451000C9451000C945100DC
:100060000C94D0000C94510011241FBECFEFD8E0A7
:10007000DEBFCDBF11E0A0E0B1E0E4E3F8E002C0F4
:1000800005900D92A230B107D9F711E0A2E0B1E0DE
:1000900001C01D92AE31B107E1F70E94B5010C9489
:1000A00018040C9400001F920F920FB60F921124A7
:1000B0002F933F938F939F93809110019091110103
:1000C000019692FD29C09093110180931001209117
:1000D0001801309119018217930709F457C08091D4
:1000E00010019091110120911A0130911B0182178A
:1000F000930709F44FC020911C0130911D0128176E
:10010000390709F445C09F918F913F912F910F902E
:100110000FBE0F901F9018951092110110921001B0
:1001200085B18E6085B98091040190910501892B7C
:1001300049F0809104019091050101979093050188
:100140008093040180911201909113019093190101
:1001500080931801809114019091150190931B01D7
:1001600080931A01809116019091170190931D01BF
:1001700080931C0180911001909111012091180130
:10018000309119018217930709F0A9CF2998A7CFB9
:100190002B98B9CF2A988091100190911101ABCF83
:1001A0001F920F920FB60F9211242F933F934F93EC
:1001B0005F936F937F938F939F93AF93BF93EF93CF
:1001C000FF938091B9008C7F803609F4A7C08038F6
:1001D000C9F09091BC0090689093BC007894803AEC
:1001E00019F1FF91EF91BF91AF919F918F917F9105
:1001F0006F915F914F913F912F910F900FBE0F9094
:100200001F901895E0910F01E33008F4A3C0E5308A
:1002100000F791E09E0F90930F019091BB00F0E0EA
:10022000E150FF4F9083D5CF80910401909105015B
:10023000892B09F476C06091040170910501209129
:10024000000130910101CB01A0E0B0E06627782FDA
:10025000892F9A2F40E050E00E94740280E091E0E4
:10026000821B930BE0910C01A0910901E89FB00162
:10027000E99F700D1124B0E0A29FF001A39FF00D43
:10028000B29FF00D11246E0F7F1F709309016091D2
:10029000060160930C01E0910D01A0910A01E89F15
:1002A000B001E99F700D1124B0E0A29FF001A39F5F
:1002B000F00DB29FF00D11246E0F7F1F70930A0195
:1002C0006091070160930D01F0910E01E0910B0127
:1002D000F89FB001F99F700D1124F0E0E29FC0017A
:1002E000E39F900DF29F900D1124680F791F70937A
:1002F0000B018091080180930E0180910201909181
:10030000030190930101809300018091000190917D
:100310000101909305018093040163CF10920F01B6
:1003200058CF80910C018093090180910601809340
:100330000C0180910D0180930A0180910701809347
:100340000D0180910E0180930B0180910801809333
:100350000E01D3CF91E09E0F90930F01F0E09091AA
:10036000BB00EA5FFE4F908334CF80E68093BA00F3
:1003700085E48093BC008EE084B985E987BD82E086
:1003800084BD91E095BD80936E007894C0E0D1E08B
:1003900060910401709105012091000130910101EB
:1003A000CB01A0E0B0E06627782F892F9A2F40E09C
:1003B00050E00E94740269017A018E01021B130B46
:1003C00080910C0120910901809FB001819F700DE7
:1003D000112430E02C9DC0012D9D900D3C9D900D71
:1003E0001124680F791F672F772780E090E00E9423
:1003F00027039B01AC010E94B50320E030E040E8F8
:100400005CE30E94B5039B01AC0160E070E080E812
:1004100094E40E9496020E94FB0270931301609381
:10042000120180910D0120910A01809FB001819FEE
:10043000700D112430E02C9DC0012D9D900D3C9D30
:10044000900D1124680F791F672F772780E090E0C7
:100450000E9427039B01AC010E94B50320E030E01D
:1004600040E85CE30E94B5039B01AC0160E070E0F2
:1004700080E894E40E9496020E94FB0270931501AA
:100480006093140180910E0120910B01809FB001B7
:10049000819F700D112430E02C9DC0012D9D900D89
:1004A0003C9D900D1124680F791F672F772780E0FE
:1004B00090E00E9427039B01AC010E94B50320E05D
:1004C00030E040E85CE30E94B5039B01AC0160E0D2
:1004D00070E080E894E40E9496020E94FB02709310
:1004E00017016093160154CFA1E21A2EAA1BBB1B61
:1004F000FD010DC0AA1FBB1FEE1FFF1FA217B307F0
:10050000E407F50720F0A21BB30BE40BF50B661F05
:10051000771F881F991F1A9469F7609570958095C9
:1005200090959B01AC01BD01CF0108955058BB27A8
:10053000AA270ED0E0C0D1D030F0D6D020F031F4D0
:100540009F3F11F41EF4C6C00EF4E095E7FBBCC05B
:10055000E92FE2D080F3BA17620773078407950783
:1005600018F071F49EF5FAC00EF4E0950B2EBA2F38
:10057000A02D0B01B90190010C01CA01A0011124A9
:10058000FF27591B99F0593F50F4503E68F11A1655
:10059000F040A22F232F342F4427585FF3CF4695E6
:1005A00037952795A795F0405395C9F77EF41F1608
:1005B000BA0B620B730B840BBAF09150A1F0FF0FD2
:1005C000BB1F661F771F881FC2F70EC0BA0F621FBE
:1005D000731F841F48F4879577956795B795F795AE
:1005E0009E3F08F0B3CF9395880F08F09927EE0F40
:1005F00097958795089598D088F09F5790F0B92FD8
:100600009927B751A0F0D1F0660F771F881F991F67
:100610001AF0BA95C9F712C0B13081F09FD0B1E09D
:1006200008959CC0672F782F8827B85F39F0B93FAD
:10063000CCF3869577956795B395D9F73EF4909569
:100640008095709561957F4F8F4F9F4F0895E894E7
:1006500009C097FB3EF490958095709561957F4F0A
:100660008F4F9F4F9923A9F0F92F96E9BB279395B8
:10067000F695879577956795B795F111F8CFFAF4C8
:10068000BB0F11F460FF1BC06F5F7F4F8F4F9F4FF9
:1006900016C0882311F096E911C0772321F09EE857
:1006A000872F762F05C0662371F096E8862F70E0BD
:1006B00060E02AF09A95660F771F881FDAF7880F97
:1006C0009695879597F9089597F99F6780E870E068
:1006D00060E008959FEF80EC089500240A941616B8
:1006E000170618060906089500240A941216130620
:1006F000140605060895092E0394000C11F48823AE
:1007000052F0BB0F40F4BF2B11F460FF04C06F5FC9
:100710007F4F8F4F9F4F089557FD9058440F551F9F
:1007200059F05F3F71F04795880F97FB991F61F073
:100730009F3F79F087950895121613061406551FEA
:10074000F2CF4695F1DF08C0161617061806991F56
:10075000F1CF86957105610508940895E894BB274B
:1007600066277727CB0197F908950BD0C4CFB5DF63
:1007700028F0BADF18F0952309F0A6CFABCF1124EB
:10078000EECFCADFA0F3959FD1F3950F50E0551F30
:10079000629FF001729FBB27F00DB11D639FAA27D6
:1007A000F00DB11DAA1F649F6627B00DA11D661F25
:1007B000829F2227B00DA11D621F739FB00DA11D46
:1007C000621F839FA00D611D221F749F3327A00D00
:1007D000611D231F849F600D211D822F762F6A2F9C
:1007E00011249F5750408AF0E1F088234AF0EE0F21
:1007F000FF1FBB1F661F771F881F91505040A9F72E
:100800009E3F510570F060CFAACF5F3FECF3983E5A
:10081000DCF3869577956795B795F795E7959F5F94
:10082000C1F7FE2B880F911D9695879597F908952E
:04083000F894FFCF6A
:020834000100C1
:00000001FF
